:1000000020308400333010200730D200E230D1009D
:1000100033308400513015205B2E04068001840AA1
:100020000406031D0D2864000034F0002120800028
:10003000840A040870060319003416288312031377
:10004000D100D21B2C28521B342852088A00510898
:10005000D10A0319D20A8200831352188317510858
:08006000D10A84000008080029
:100BC6008301AC008800071087100711AD01AD0A3C
:100BD600AE01FB25071508008301AC008800071449
:100BE60087100711AD01AD0AAE01FB2507150800F8
:100BF6008301AF01B001112EB101B201B10A03198F
:100C0600B20A3208803AF00084307002E9300319E3
:100C16003102031C012EAF0A0319B00A2E08300256
:100C2600031D172E2D082F0203180800FF2D0A306A
:100C3600F200F301831203132508F1002408F000E3
:100C4600852730307407A800003003180130750777
:100C5600A9000A30F200F3012508F1002408F0008B
:100C6600852730307007A600003003180130710761
:100C7600A7003C30E325C030E325AA01AB012A08D2
:100C8600443E840083130008EF25AA0A0319AB0A21
:100C96002B08803AF000803070020C3003192A02CB
:100CA600031C422E0130E3252808EF252608EF2DE8
:100CB60083160313870188018E309F00413083120B
:100CC6009F00013083168500860102308312AD0035
:100CD600AE01FB250E30E3250130E3250630E32582
:100CE6008030E325A201A3012208333E840083134A
:100CF6000008EF25A20A0319A30A003023021030C8
:100D060003192202031C772EBC30AD000230AE0060
:100D1600FB251F151F198D2E1E08A10083161E0800
:100D26008312A0002108F1002008F0008227F301B9
:100D3600FA30F4003E30F500052746277008A0007B
:100D46007108A1002008A4002108A5001A268C2EEF
:100D56008408031900347208800084037108800037
:100D66008403700880000034F801710D720DF600DE
:100D760076080319C22EF80DF201F1170800F001EA
:100D8600F101F2010034F810740D750DF7007708C3
:100D96000319D22E0318F814F501F4170800F70109
:100DA600F301F401F501080076080319C22EF113C8
:100DB600F80C760CF2000318F117AB2EF608031D9B
:100DC600F52EF001F101F201AB2E72030319F00AC0
:100DD6000319F10A0319F20A0310F20CF10CF00CD4
:100DE600F60AE12EF208031DE82E700871040319B5
:100DF600E42EF11BD72EF6030319E42E0310F00D93
:100E0600F10DFC2E8401B726C626F901FA01FB0175
:100E16000730F5000310F40CF30C031C1D2F7008AB
:100E2600F90771080318710FFA0772080318720F91
:100E3600FB070310F00DF10DF20DF50B0D2F093028
:100E4600F500292F0310FB0CFA0CF90C0310F40C17
:100E5600F30C031C382F7008F90771080318710F7B
:100E6600FA0772080318720FFB07F50B252F780C8B
:100E7600F8067908F0007A08F1007B08F2007A306B
:100E86007707F607E12E8401B726F3018230F607CD
:100E9600F61BC22EF030F607F61B622F18307602CC
:100EA6000318C22EF608031D5B2F7818D4270800F6
:100EB600F6030310F00DF10DF20DF30D552F03108F
:100EC600F20CF10CF00CF60F622F582FF31F6E2F59
:100ED6007814D4276F2FF8018E30F6008401F308BA
:100EE6000319E12E0310F30CF20CF10CF00CF60AC8
:100EF600722FF201F11BF2037208F300692FF2015F
:100F0600F3016E2FF601F11F8F2FF009F00A031976
:100F1600F103F1097617F61773088039F606F31F01
:100F26009B2FF209F20A0319F303F3099B2FF6012B
:100F3600F401F50172087304031DA42FF001F101F9
:100F460000341F30F6040310F60AF20DF30D031CED
:100F5600A72FF30CF20C73087102031DB42F72084D
:100F66007002031CBC2F7208F0027308031C730A7C
:100F7600F102F40DF50DF60BF61AAC2FF61FC82F7D
:100F8600F409F40A0319F503F5097408F200750863
:100F9600F300761F0034F009F00A0319F103F10992
:100FA60000340310FF30F007F009031CF107F109C4
:100FB600031CF207F209031CF307F309080049347E
:100FC6004E3454344534523446344134433449342F
:100FD6004E34473420344C344D34333435340034B5
:100FE600543445344D3450344534523441345434F9
:0A0FF6005534523445343A340034C7
:00000001FF
